:060000000A128A110C280F
:10000800FE00030EF3000A08F4000A128A11BE2F3C
:100018000A128A110F28F501F601F701F801831277
:100028000313E601E701E801E901EA01EB01EC014C
:10003800ED01EE0183160313A001A101A201A301A2
:1000480083010A128A11C52D8312031331088039DE
:10005800BB003108B6003607C100B01F3428352868
:1000680036284114410803193A283B284A28410AEE
:10007800031D3F28402848280030B1000030B00058
:100088000030AF000030AE00B01752280030B10089
:100098000030B0000030AF000030AE0035088039C5
:1000A800B6003608BB063508B6003607BC00B41FD4
:1000B8005E285F2860283C143C08031964286528DA
:1000C80074283C0A031D69286A2872280030B50084
:1000D8000030B4000030B3000030B200B4177C2800
:1000E8000030B5000030B4000030B3000030B2007A
:1000F8003C0803198028812886284108031D852883
:1001080086288F280030B1000030B0000030AF00E2
:100118000030AE006C2B2E08A00034080A128A1595
:10012800A7250A128A11831203132108C700200881
:10013800C6004608B600B701B801B9013908C000C1
:100148003808BF003708BE003608BD004708B600AB
:10015800B701B801B9013908C5003808C400370823
:10016800C3003608C2002F08A00033080A128A15F7
:10017800A7250A128A11831203132108C700200831
:10018800C6004608B600B701B801B9013608BD0770
:10019800370803110318013E0319D328BE0738088E
:1001A80003110318013E0319DA28BF0739080311A0
:1001B8000318013E0319E128C0074708B600B70134
:1001C800B801B9013608C207370803110318013E00
:1001D8000319EF28C307380803110318013E031950
:1001E800F628C407390803110318013E0319FD282E
:1001F800C5073008A00032080A128A15A7250A1276
:100208008A11831203132108C7002008C600460874
:10021800B600B701B801B9013608BD0737080311A0
:100228000318013E03191929BE07380803110318DA
:10023800013E03192029BF07390803110318013E9D
:1002480003192729C0074708B600B701B801B90143
:100258003608C207370803110318013E0319352968
:10026800C307380803110318013E03193C29C407C2
:10027800390803110318013E03194329C50708303B
:10028800B6000310BD0DBE0DBF0DC00DB60B452940
:100298002F08A00032080A128A15A7250A128A1107
:1002A800831203132108C7002008C6004608B600B9
:1002B8004708B700B801B9013608BD073708031168
:1002C8000318013E03196929BE07380803110318EA
:1002D800013E03197029BF07390803110318013EAD
:1002E80003197729C0072E08A00033080A128A15B7
:1002F800A7250A128A11831203132108C7002008B0
:10030800C6004608B6004708B700B801B901360864
:10031800BD07370803110318013E03199429BE07C6
:10032800380803110318013E03199B29BF07390830
:1003380003110318013E0319A229C0070830B600AB
:100348000310BD0DBE0DBF0DC00DB60BA4292E08A0
:10035800A00032080A128A15A7250A128A118312E8
:1003680003132108C7002008C6004608B60047083E
:10037800B700B801B9013608BD07370803110318DB
:10038800013E0319C829BE07380803110318013EA6
:100398000319CF29BF07390803110318013E0319B0
:1003A800D629C0072F08A00034080A128A15A725E5
:1003B8000A128A11831203132108C7002008C600F5
:1003C8004608B6004708B700B801B9013608C207A1
:1003D800370803110318013E0319F329C307380826
:1003E80003110318013E0319FA29C4073908031138
:1003F8000318013E0319012AC5073008A000330875
:100408000A128A15A7250A128A11831203132108D2
:10041800C7002008C6004608B6004708B700B8015C
:10042800B9013608C207370803110318013E03193A
:100438001E2AC307380803110318013E0319252A89
:10044800C407390803110318013E03192C2AC507EC
:100458003008A00034080A128A15A7250A128A1142
:10046800831203132108C7002008C6004608B600F7
:100478004708B700B801B90108300310B60DB70D29
:10048800B80DB90DFF3E031D412A3608C2073708CB
:1004980003110318013E0319522AC3073808031130
:1004A8000318013E0319592AC40739080311031810
:1004B800013E0319602AC5073D08B6003E08B7008B
:1004C8003F08B8004008B90018300310B90CB80C40
:1004D800B70CB60CFF3E031D692A3608C207370859
:1004E80003110318013E03197A2AC30738080311B8
:1004F8000318013E0319812AC40739080311031898
:10050800013E0319882AC5070830B6000310BD0D3F
:10051800BE0DBF0DC00DB60B8A2A41083C07B600B8
:10052800B701B70D3608823EC60037080318013EEA
:10053800FF3EC700BC2A0130B6000310C20DC30D30
:10054800C40DC50DB60BA12AC01FAB2AAC2AAD2A13
:1005580042140130B6000310BD0DBE0DBF0DC00D15
:10056800B60BAF2AFF30C6070318C70AFF30C70704
:10057800C41FBF2AC02A9F2ABC01C01FC42AC52A7B
:10058800E12AFF303D05B600FF303E05B700FF30D9
:100598003F05B8007F304005B900390838043704F2
:1005A80036040319D82AD92ADC2ABC01BC0AE12A54
:1005B800421CDF2AE02AE12AD92A3C080319E52A45
:1005C800E62A172B0130C207003003180130C30791
:1005D800003003180130C407003003180130C50784
:1005E800451CF72AF82A172B4208B6004308B7001B
:1005F8004408B8004508B9000130BA00390DB90CF3
:10060800B80CB70CB60CBA0B022B3908C500380861
:10061800C4003708C3003608C2000130C6070318F3
:10062800C70A0030C7074708803AFF0080307F02BA
:10063800031D202BFF304602031C232B242B2F2BBA
:100648007F3083120313C5008030C4000030C3001C
:100658000030C200602B831203134708803AFF0062
:1006680080307F02031D3A2B0130460203183D2BD0
:100678003E2B4A2B003083120313C5000030C40000
:100688000030C3000030C200BB01602B831203138B
:100698004608C100FF30C205FF30C3057F30C405DE
:1006A8000030C505411C592B5A2B5B2BC417410838
:1006B800B6000310360CC5003B08B6003608C50462
:1006C8004508B1004408B0004308AF004208AE0036
:1006D8000800831203134B088039D8004B08D00058
:1006E8005007DA00CA1F792B7A2B7B2B5A145A0829
:1006F80003197F2B802B902B5A0A031D842B852BE3
:100708008D2B0030CB000030CA000030C90000300B
:10071800C800CA17CB01982B0030CB000030CA00A4
:100728000030C9000030C8004F088039D900590886
:1007380058060319A02BA12BA22B58174F08D0003D
:100748005007D900CE1FA92BAA2BAB2B5914590837
:100758000319AF2BB02BC02B590A031DB42BB52B93
:10076800BD2B0030CF000030CE000030CD0000306F
:10077800CC00CE17CF01C82B0030CF000030CE0000
:100788000030CD000030CC005A0859020318CD2B98
:10079800CE2BF42B581FD12BD22BD62B8030D00048
:1007A8005008D8065A08DB005908DA005B08D90057
:1007B8004808DB004C08C8005B08CC004908DB008F
:1007C8004D08C9005B08CD004A08DB004E08CA0086
:1007D8005B08CE004B08DB004F08CB005B08CF005E
:1007E800DB015908D000D1015108D3005A08500242
:1007F800D200031CD3035308803AFF0080307F02E5
:10080800031D082C1A305202031C0B2C0C2C432CF1
:10081800831203134B084A0449044804031D152C8A
:10082800172C0130182C0030DB000030CB000030D2
:10083800CA000030C9000030C8005908DA004B2C43
:100848005B1C272C282C2F2C5B08D0000310500C85
:100858000138DB00312C0310DB0C481C342C352C00
:10086800362CDB170130D0004B0DCB0CCA0CC90C51
:10087800C80CD00B382C0130D0005008DA0783128E
:10088800031359085A02031C4A2C4B2C242C581BBE
:100898004E2C4F2C982C5A08031D532C542C5D2C8D
:1008A8000030CB000030CA000030C9000030C8005A
:1008B800C42D4C08C8074D0803110318013E03193D
:1008C800662CC9074E0803110318013E03196D2C45
:1008D800CA074F0803110318013E0319742CCB07EC
:1008E8004B1C772C782C4C2D5B1C7B2C7C2C832C64
:1008F8005B08D0000310500C0138DB00852C031076
:10090800DB0C481C882C892C8A2CDB170130D00082
:100918004B0DCB0CCA0CC90CC80CD00B8C2C01305D
:10092800D0005008DA074C2D4B08803AFF004F08DA
:10093800803A7F02031DAA2C4E084A02031DAA2CE6
:100948004D084902031DAA2C4C0848020318AD2C77
:10095800AE2C062DFF30D000FF30D100FF30D20082
:10096800FF30D3004C08D4004D08D5004E08D600FF
:100978004F08D7004808D4024908031C490FC52C62
:10098800C62CD5024A08031C4A0FCB2CCC2CD60205
:100998004B08031C4B0FD12CD22CD7025408D0077C
:1009A80055080318550FD92CDA2CD1075608031807
:1009B800560FDF2CE02CD20757080318570AD30725
:1009C8005308CB005208CA005108C9005008C80093
:1009D8008030D0005008D806DB09DB0A5B08031D0D
:1009E800F62CF72C142D0130C807003003180130FD
:1009F800C907003003180130CA0700300318013056
:100A0800CB07142D4C08C8024D08031C4D0FC90212
:100A18004E08031C4E0FCA024F08031C4F0FCB028F
:100A28004B084A0449044804031D1B2D1C2D482D5E
:100A38005B08031D202D212D482D0030CB000030F0
:100A4800CA000030C9000030C800C42D0130D000F1
:100A58000310C80DC90DCA0DCB0DD00B2C2DDB1FF3
:100A6800362D372D382D48145B1C3B2D3C2D3F2D42
:100A78000314DB0D412D0310DB0D5A080319452D16
:100A8800462D482D0130DA02CA1F4B2D4C2D2A2D38
:100A9800D901DB1F502D512D5F2D5B087F390319BC
:100AA800562D572D5A2DD901D90A5F2D481C5D2D79
:100AB8005E2D5F2D572D59080319632D642D982D30
:100AC8000130C807003003180130C9070030031887
:100AD8000130CA07003003180130CB074B1C752DB5
:100AE800762D982D4808D0004908D1004A08D20030
:100AF8004B08D3000130D400530DD30CD20CD10CC9
:100B0800D00CD40B802D5308CB005208CA005108D2
:100B1800C9005008C8005A0A0319932D942D982D1E
:100B28000130D0005008DA075A0A03199C2D9D2D70
:100B3800A22D5A08031DA12DA22DB02D0030CB00E7
:100B48000030CA000030C9000030C8005A08031D30
:100B5800AE2DAF2DB02DD8015A1CB32DB42DB62D06
:100B6800CA17BA2D7F30D0005008CA055A08D000DD
:100B78000310500CCB00D81FC22DC32DC42DCB178A
:100B880008000A128A15D0250A128A110A128A1533
:100B9800FB250A128A110A128A155B250A128A1184
:100BA800831203136E08031DDA2DDB2DE62E0814BD
:100BB80088100811C3309F05033083160313A6005D
:100BC800A60BE42D831203139F149F18EC2DED2D13
:100BD800E92D0C131E0883160313A600A701260887
:100BE80083120313EC0083160313270883120313DD
:100BF800ED006D0883160313A500831203136C0818
:100C080083160313A4000A128A1569260A128A1188
:100C18007708831203139500033083160313A60085
:100C2800A60B142E831203131F08C33904389F0020
:100C3800033083160313A600A60B202E831203137A
:100C48009F149F18282E292E252E0C131E08831654
:100C58000313A600A701260883120313EA008316CC
:100C68000313270883120313EB006B08831603137F
:100C7800A500831203136A0883160313A4000A123B
:100C88008A15C4260A128A117508831203139B0059
:100C9800033083160313A600A60B502E83120313EA
:100CA8001F08C33908389F00033083160313A600B2
:100CB800A60B5C2E831203139F149F18642E652EB7
:100CC800612E0C131E0883160313A600A70126081D
:100CD80083120313E80083160313270883120313F0
:100CE800E9000030AF00B000FF30B1000030B200C2
:100CF8000530B3000030B4001130B5000030B60044
:100D080068080A128A152E260A128A1183120313FA
:100D1800300883160313A300831203132F088316C6
:100D28000313A200033083160313A600A60B9A2E02
:100D3800831203131F08C3390C389F00033083162E
:100D48000313A600A60BA62E831203139F149F1845
:100D5800AE2EAF2EAB2E0C131E0883160313A6005F
:100D6800A701260883120313E60083160313270836
:100D780083120313E7000030AF00B000FF30B1006A
:100D88000030B2000530B3000030B4001130B500B7
:100D98000030B60066080A128A152E260A128A1131
:100DA80083120313300883160313A100831203135D
:100DB8002F0883160313A000033083160313A6001D
:100DC800A60BE42E831203136E03031DEC2EED2EE7
:100DD800F02E08108814081102306E06031DF52E37
:100DE800F62EF92E08108810081503306E06031D1C
:100DF800FE2EFF2ED42DEE01D42D0A128A110C28B6
:100E080083120313A800280803190B2F0C2F202F77
:100E1800A31F0F2F102F202F2009AA002109AB0094
:100E28002209AC002309AD00AA0A0319AB0A031969
:100E3800AC0A0319AD0A282F2308AD002208AC001C
:100E48002108AB002008AA0023082204210420045A
:100E5800031D2F2F302F392F0030A3000030A200A0
:100E68000030A1000030A000BD2F9630A900492F06
:100E78000130A4002408A90701300310AD0CAC0C04
:100E8800AB0CAA0CFF3E031D412FFE302D05031DA0
:100E98004E2F4F2F3C2F6B2F0130A4002408A90799
:100EA8000130AA07003003180130AB0700300318DF
:100EB8000130AC07003003180130AD0701300310D2
:100EC800AD0CAC0CAB0CAA0CFF3E031D632FFF301E
:100ED8002D05031D702F712F502F7D2F0130A90272
:100EE8000130A4000310AA0DAB0DAC0DAD0DA40B81
:100EF800762FAC1B802F812F872F023029020318F1
:100F0800862F872F722F29188A2F8B2F932FFF3028
:100F1800AA05FF30AB057F30AC05FF30AD050310E7
:100F2800A90C2908A400A501A601A70118300310DF
:100F3800A40DA50DA60DA70DFF3E031D9B2F24088C
:100F4800AA042508AB042608AC042708AD04280821
:100F58000319AF2FB02FB52FA31FB32FB42FB52F61
:100F6800AD172D08A3002C08A2002B08A1002A0801
:100F7800A00008000B1DC12FC22FE52F0B116430F4
:100F88008312031381008715831603132308F100C6
:100F98002208F0000A128A154A250A128A118312B9
:100FA800031387110716831603132108F10020087D
:100FB800F0000A128A154A250A128A1183120313AD
:100FC80007120B1CE82FE92FF42F831203130618BE
:100FD800EE2FEF2FF32F0130F2007208EE070B10FF
:0E0FE80074088A00730E8300FE0E7E0E090050
:101A9400542D4C2D4D2D4E2D0130F0020030031CE1
:101AA400F103F10270087104031D592D5A2D4B2DB9
:101AB400080083160313071587149B3092003F30E8
:101AC4008312031397051708F0390C3897000F3069
:101AD4009D04303097049D161D160B3095000B3075
:101AE4009B008C100330920412158C1C7A2D7B2DD4
:101AF400772D83160313071187100800831203132D
:101B0400A401A501201C872D882D8E2D2208A40751
:101B14000318A50A2308A50701300310A20DA30D7D
:101B2400FF3E031D8F2D01300310A10CA00CFF3EBE
:101B3400031D962D20082104031DA12DA22D842D03
:101B44002508A1002408A000080083120313A8009C
:101B5400A401A5012008A200A3012208A6002308CD
:101B6400A700281CB62DB72DBD2D2608A4070318E1
:101B7400A50A2708A50701300310A60DA70DFF3EEF
:101B8400031DBE2D0310A80C2808031DCA2DCB2D40
:101B9400B32D2508A1002408A0000800831603170C
:101BA40089018316031385011F308600870188018C
:101BB40083120313850186018701880183160313A9
:101BC40081137F3096000F088F3930388F000F143F
:101BD400811281110108F8390338810064308312BD
:101BE400031381008B160B118B170B170B148B111E
:101BF40008008316031305148316031708148316A9
:101C04000313851483160317881483160313051509
:101C140083160317081583160313851583160317F4
:101C24008815831203131F179F13831603131F12A0
:101C34009F12831203131F119F111F129F128316E9
:101C440003139F13831203131F140330831203130C
:101C5400A000A00B2B2E080083120313BA002F0838
:101C64003102B7003008031C300A3202B8003308CE
:101C74003707A60034080318340A3807A7003A08BF
:101C8400B9002F083902A00030090318013EA10051
:101C940033083502A2003408031C340A3602A300B8
:101CA4000A128A1580250A128A1583120313210841
:101CB400A9002008A8000A128A151F270A128A15EB
:101CC400831203132708B0002608AF000800831608
:101CD4000313240883120313A00083160313250897
:101CE40083120313A1000030A11BFF30A200A30044
:101CF40001300A128A1104270A128A158312031367
:101D04002308B5002208B4002108B3002008B2005B
:101D14003D30B1005030B000D030AF00D130AE0013
:101D24000A128A1128200A128A1583120313310811
:101D3400CF003008CE002F08CD002E08CC00403054
:101D4400CB00E030CA000030C9000030C8000A12DD
:101D54008A116D230A128A15831203134B08DF00BC
:101D64004A08DE004908DD004808DC000A128A152A
:101D740088270A128A15831203135D08F8005C0889
:101D8400F700080083160313240883120313A0002A
:101D940083160313250883120313A1000030A11B2B
:101DA400FF30A200A30001300A128A1104270A128C
:101DB4008A15831203132308B5002208B4002108EE
:101DC400B3002008B2003D30B1005030B000D03034
:101DD400AF00D130AE000A128A1128200A128A15E7
:101DE400831203133108CF003008CE002F08CD0032
:101DF4002E08CC004030CB00E030CA000030C900CF
:101E04000030C8000A128A116D230A128A1583123F
:101E140003134B08DF004A08DE004908DD004808C8
:101E2400DC000A128A1588270A128A158312031302
:101E34005D08F6005C08F500080083120313AC018A
:101E4400A71F252F262F2D2FA609A709A60A031998
:101E5400A70AAC01AC0AA91F302F312F3A2FA809C9
:101E6400A909A80A0319A90A0130AA002A08AC067C
:101E7400AD01AE01260827040319412F422F792F03
:101E8400AB01AB0A502F01300310A60DA70DFF3E86
:101E9400031D462F0130AA002A08AB07A71F532FA2
:101EA400542F452F01300310AD0DAE0DFF3E031D21
:101EB400552F27082902031D612F26082802031C19
:101EC400642F652F6C2F2608A8022708031CA9037A
:101ED400A9022D1401300310A70CA60CFF3E031D0C
:101EE4006D2F0130AB02031D782F792F542F2C084E
:101EF40003197D2F7E2F832FAD09AE09AD0A031977
:101F0400AE0A2E08A7002D08A600080003108312AD
:101F140003135E0D5F0DE5006508031D922F932FDB
:101F24009C2F0030DF000030DE000030DD00003088
:101F3400DC00FF2F5C08E0005D08E1005E08E200C1
:101F44005F08E3001F300310E30CE20CE10CE00C2B
:101F5400FF3E031DA52F6008E400DE17FF30DC05FB
:101F6400FF30DD05FF30DE050030DF059630E50289
:101F7400E51FBD2FBE2FD82F6508803A973E031862
:101F8400C42FC52FC62F932F01300310DF0CDE0C96
:101F9400DD0CDC0CFF3E031DC72F0130E0006008A0
:101FA400E507031DD62FD72FC62FEF2F203065024C
:101FB400031CDD2FDE2FEA2F932F0130E0000310E6
:101FC400DC0DDD0DDE0DDF0DE00BE12F0130E50250
:101FD4006508031DEE2FEF2FDF2F64080319F32F7D
:101FE400F42FFF2FDC09DD09DE09DF09DC0A031900
:0C1FF400DD0A0319DE0A0319DF0A0800E9
:08400000FF3FFF3FFF3FFF3FC0
:04400E00D420FF3F7C
:00000001FF
