:060000000A128A11FC2F18
:100F90000A128A11D1270A128A11CD2F0A128A1138
:100FA00000288316031789018316031385011F3058
:100FB000860087018801831203138501860187015A
:100FC00088018316031381137F3096000F088F3931
:100FD00030388F000F14811281110108F83903385D
:100FE000810064308312031381008B160B118B1761
:100FF0000B170B148B11080083010A128A11C82FDA
:08400000FF3FFF3FFF3FFF3FC0
:04400E00D420FF3F7C
:00000001FF
