:060000000A128A110C280F
:10000800FE00030EFC000A08FD000A128A11F42EF5
:100018000A128A110F28F001F101F201F301F4012B
:10002800F501F60183120313EA01EB01EC01ED017E
:10003800EE01EF0183160313A001A101A201A301A0
:10004800A401A50183010A128A11C72D8312031383
:1000580031088039BB003108B6003607C100B01F2F
:100068003628372838284114410803193C283D28E8
:100078004C28410A031D412842284A280030B10073
:100088000030B0000030AF000030AE00B017542888
:100098000030B1000030B0000030AF000030AE00DA
:1000A80035088039B6003608BB063508B60036076D
:1000B800C000B41F60286128622840144008031952
:1000C800662867287628400A031D6B286C28742840
:1000D8000030B5000030B4000030B3000030B2008A
:1000E800B4177E280030B5000030B4000030B300EB
:1000F8000030B20040080319822883288828410864
:10010800031D8728882891280030B1000030B000EE
:100118000030AF000030AE006E2B2E08A00034086F
:100128000A128A1534250A128A1183120313210828
:10013800C7002008C6004608B600B701B801B901D3
:100148003908BF003808BE003708BD003608BC00B3
:100158004708B600B701B801B9013908C500380821
:10016800C4003708C3003608C2002F08A0003308AF
:100178000A128A1534250A128A11831203132108D8
:10018800C7002008C6004608B600B701B801B90183
:100198003608BC07370803110318013E0319D52890
:1001A800BD07380803110318013E0319DC28BE07F0
:1001B800390803110318013E0319E328BF0747084C
:1001C800B600B701B801B9013608C20737080311EC
:1001D8000318013E0319F128C3073808031103184F
:1001E800013E0319F828C407390803110318013E12
:1001F8000319FF28C5073008A00032080A128A151B
:1002080034250A128A11831203132108C700200813
:10021800C6004608B600B701B801B9013608BC07E0
:10022800370803110318013E03191B29BD073808B5
:1002380003110318013E03192229BE0739080311C7
:100248000318013E03192929BF074708B600B7015B
:10025800B801B9013608C207370803110318013E6F
:1002680003193729C307380803110318013E031976
:100278003E29C407390803110318013E031945290B
:10028800C5070830B6000310BC0DBD0DBE0DBF0D6F
:10029800B60B47292F08A00032080A128A15342500
:1002A8000A128A11831203132108C7002008C60006
:1002B8004608B6004708B700B801B9013608BC07B8
:1002C800370803110318013E03196B29BD073808C5
:1002D80003110318013E03197229BE0739080311D7
:1002E8000318013E03197929BF072E08A000330817
:1002F8000A128A1534250A128A1183120313210857
:10030800C7002008C6004608B6004708B700B8016D
:10031800B9013608BC07370803110318013E031951
:100328009629BD07380803110318013E03199D29B2
:10033800BE07390803110318013E0319A429BF0792
:100348000830B6000310BC0DBD0DBE0DBF0DB60BB9
:10035800A6292E08A00032080A128A1534250A1286
:100368008A11831203132108C7002008C600460813
:10037800B6004708B700B801B9013608BC07370806
:1003880003110318013E0319CA29BD0738080311D0
:100398000318013E0319D129BE07390803110318B0
:1003A800013E0319D829BF072F08A00034080A12F4
:1003B8008A1534250A128A11831203132108C700EB
:1003C8002008C6004608B6004708B700B801B901BA
:1003D8003608C207370803110318013E0319F52927
:1003E800C307380803110318013E0319FC29C40781
:1003F800390803110318013E0319032AC5073008F9
:10040800A00033080A128A1534250A128A118312A9
:1004180003132108C7002008C6004608B60047088D
:10042800B700B801B9013608C20737080311031825
:10043800013E0319202AC307380803110318013E97
:100448000319272AC407390803110318013E0319A1
:100458002E2AC5073008A00034080A128A15342548
:100468000A128A11831203132108C7002008C60044
:100478004608B6004708B700B801B90108300310AC
:10048800B60DB70DB80DB90DFF3E031D432A36084A
:10049800C207370803110318013E0319542AC3077A
:1004A800380803110318013E03195B2AC4073908E9
:1004B80003110318013E0319622AC5073C08B60058
:1004C8003D08B7003E08B8003F08B90018300310CF
:1004D800B90CB80CB70CB60CFF3E031D6B2A3608D6
:1004E800C207370803110318013E03197C2AC30702
:1004F800380803110318013E0319832AC407390871
:1005080003110318013E03198A2AC5070830B600EB
:100518000310BC0DBD0DBE0DBF0DB60B8C2A4108D6
:100528004007B600B701B70D3608823EC600370847
:100538000318013EFF3EC700BE2A0130B600031073
:10054800C20DC30DC40DC50DB60BA32ABF1FAD2A1E
:10055800AE2AAF2A42140130B6000310BC0DBD0DFF
:10056800BE0DBF0DB60BB12AFF30C6070318C70A68
:10057800FF30C707C41FC12AC22AA12AC001BF1F52
:10058800C62AC72AE32AFF303C05B600FF303D05DE
:10059800B700FF303E05B8007F303F05B900390885
:1005A8003804370436040319DA2ADB2ADE2AC001A4
:1005B800C00AE32A421CE12AE22AE32ADB2A40088D
:1005C8000319E72AE82A192B0130C207003003185B
:1005D8000130C307003003180130C4070030031886
:1005E8000130C507451CF92AFA2A192B4208B6001A
:1005F8004308B7004408B8004508B9000130BA00FC
:10060800390DB90CB80CB70CB60CBA0B042B390859
:10061800C5003808C4003708C3003608C2000130D6
:10062800C6070318C70A0030C7074708803AFF0003
:1006380080307F02031D222BFF304602031C252B2E
:10064800262B312B7F3083120313C5008030C40062
:100658000030C3000030C200622B83120313470826
:10066800803AFF0080307F02031D3C2B0130460298
:1006780003183F2B402B4C2B003083120313C5006B
:100688000030C4000030C3000030C200BB01622B40
:10069800831203134608C100FF30C205FF30C305AB
:1006A8007F30C4050030C505411C5B2B5C2B5D2BDE
:1006B800C4174108B6000310360CC5003B08B60045
:1006C8003608C5044508B1004408B0004308AF0027
:1006D8004208AE000800831203134B088039D80083
:1006E8004B08D0005007DA00CA1F7B2B7C2B7D2BD0
:1006F8005A145A080319812B822B922B5A0A031D6C
:10070800862B872B8F2B0030CB000030CA0000309F
:10071800C9000030C800CA17CB019A2B0030CB00A3
:100728000030CA000030C9000030C8004F088039C6
:10073800D900590858060319A22BA32BA42B581724
:100748004F08D0005007D900CE1FAB2BAC2BAD2BD8
:10075800591459080319B12BB22BC22B590A031D7E
:10076800B62BB72BBF2B0030CF000030CE000030A7
:10077800CD000030CC00CE17CF01CA2B0030CF00FF
:100788000030CE000030CD000030CC005A085902AD
:100798000318CF2BD02BF62B581FD32BD42BD82BA9
:1007A8008030D0005008D8065A08DB005908DA0013
:1007B8005B08D9004808DB004C08C8005B08CC007F
:1007C8004908DB004D08C9005B08CD004A08DB007A
:1007D8004E08CA005B08CE004B08DB004F08CB0070
:1007E8005B08CF00DB015908D000D1015108D300C4
:1007F8005A085002D200031CD3035308803AFF0062
:1008080080307F02031D0A2C1A305202031C0D2C63
:100818000E2C452C831203134B084A044904480440
:10082800031D172C192C01301A2C0030DB00003066
:10083800CB000030CA000030C9000030C800590899
:10084800DA004D2C5B1C292C2A2C312C5B08D0009B
:100858000310500C0138DB00332C0310DB0C481C50
:10086800362C372C382CDB170130D0004B0DCB0C35
:10087800CA0CC90CC80CD00B3A2C0130D000500857
:10088800DA078312031359085A02031C4C2C4D2C07
:10089800262C581B502C512C9A2C5A08031D552CC9
:1008A800562C5F2C0030CB000030CA000030C90045
:1008B8000030C800C62D4C08C8074D08031103189E
:1008C800013E0319682CC9074E0803110318013E9D
:1008D80003196F2CCA074F0803110318013E0319A7
:1008E800762CCB074B1C792C7A2C4E2D5B1C7D2C3F
:1008F8007E2C852C5B08D0000310500C0138DB00DF
:10090800872C0310DB0C481C8A2C8B2C8C2CDB17B7
:100918000130D0004B0DCB0CCA0CC90CC80CD00B45
:100928008E2C0130D0005008DA074E2D4B08803A43
:10093800FF004F08803A7F02031DAC2C4E084A0284
:10094800031DAC2C4D084902031DAC2C4C08480271
:100958000318AF2CB02C082DFF30D000FF30D10089
:10096800FF30D200FF30D3004C08D4004D08D5002A
:100978004E08D6004F08D7004808D4024908031C7F
:10098800490FC72CC82CD5024A08031C4A0FCD2C86
:10099800CE2CD6024B08031C4B0FD32CD42CD702D9
:1009A8005408D00755080318550FDB2CDC2CD10749
:1009B80056080318560FE12CE22CD20757080318E3
:1009C800570AD3075308CB005208CA005108C90078
:1009D8005008C8008030D0005008D806DB09DB0A70
:1009E8005B08031DF82CF92C162D0130C8070030C0
:1009F80003180130C907003003180130CA07003056
:100A080003180130CB07162D4C08C8024D08031CEB
:100A18004D0FC9024E08031C4E0FCA024F08031C93
:100A28004F0FCB024B084A0449044804031D1D2DEF
:100A38001E2D4A2D5B08031D222D232D4A2D003023
:100A4800CB000030CA000030C9000030C800C62DF5
:100A58000130D0000310C80DC90DCA0DCB0DD00B45
:100A68002E2DDB1F382D392D3A2D48145B1C3D2DBA
:100A78003E2D412D0314DB0D432D0310DB0D5A08C9
:100A88000319472D482D4A2D0130DA02CA1F4D2D72
:100A98004E2D2C2DD901DB1F522D532D612D5B08B6
:100AA8007F390319582D592D5C2DD901D90A612D8B
:100AB800481C5F2D602D612D592D59080319652D8E
:100AC800662D9A2D0130C807003003180130C90778
:100AD800003003180130CA07003003180130CB0773
:100AE8004B1C772D782D9A2D4808D0004908D10045
:100AF8004A08D2004B08D3000130D400530DD30C60
:100B0800D20CD10CD00CD40B822D5308CB00520838
:100B1800CA005108C9005008C8005A0A0319952D7F
:100B2800962D9A2D0130D0005008DA075A0A031979
:100B38009E2D9F2DA42D5A08031DA32DA42DB22D43
:100B48000030CB000030CA000030C9000030C800B7
:100B58005A08031DB02DB12DB22DD8015A1CB52D40
:100B6800B62DB82DCA17BC2D7F30D0005008CA0545
:100B78005A08D0000310500CCB00D81FC42DC52D27
:100B8800C62DCB1708000A128A155D250A128A118C
:100B98000A128A1588250A128A110A128A15E82467
:100BA8000A128A117508031DDA2DDB2DD02E831247
:100BB8000313081488100811C3309F0503308312EB
:100BC8000313E800E80BE62D831203139F149F1804
:100BD800EE2DEF2DEB2D0C131E08E800E901680837
:100BE800EE006908EF006F08E7006E08E6000A12D9
:100BF8008A15BB250A128A117208831203139500FD
:100C0800033083120313E800E80B082E8312031342
:100C18001F08C33904389F00033083120313E80008
:100C2800E80B142E831203139F149F181C2E1D2EDD
:100C3800192E0C131E08E800E9016808831603132F
:100C4800A40083120313690883160313A50025085B
:100C580083120313E7008316031324088312031374
:100C6800E6000A128A1510260A128A1170088312E1
:100C780003139B00033083120313E800E80B422E92
:100C8800831203131F08C33908389F0003308312E7
:100C98000313E800E80B4E2E831203139F149F18CA
:100CA800562E572E532E0C131E08E800E90168082B
:100CB80083160313A2008312031369088316031310
:100CC800A300003083120313AF00B000FF30B1005F
:100CD8000030B2000530B3000030B4001130B50068
:100CE8000030B6008316031322080A128A11B427AB
:100CF8000A128A11831203133008ED002F08EC0042
:100D0800033083120313E800E80B882E83120313C1
:100D18001F08C3390C389F00033083120313E800FF
:100D2800E80B942E831203139F149F189C2E9D2E5C
:100D3800992E0C131E08E800E901680883160313AE
:100D4800A00083120313690883160313A10000305F
:100D580083120313AF00B000FF30B1000030B200BF
:100D68000530B3000030B4001130B5000030B600D3
:100D78008316031320080A128A11B4270A128A114B
:100D8800831203133008EB002F08EA0003308312A4
:100D98000313E800E80BCE2E7503031DD42ED52EC1
:100DA800DE2E8312031308108814081170089B00A4
:100DB8007208950002307506031DE32EE42EE92E15
:100DC8008312031308108810081503307506031DD5
:100DD800EE2EEF2ED62DF501D62D0A128A110C28EB
:100DE8000B1DF72EF82E172F0B11643083120313E7
:100DF800810087156D08F8006C08F7000A128A113F
:100E0800EF270A128A1183120313871107166B083A
:100E1800F8006A08F7000A128A11EF270A128A11E5
:100E28008312031307120B1C1A2F1B2FAD2F8312CB
:100E380003130618202F212F252F0130FA007A08D6
:100E4800F5078618282F292F2D2F7608043EF6003F
:100E5800AC2F0619302F312F352F7608FC3EF600BF
:100E6800AC2F8619382F392F612F7208F7007608B2
:100E78000A128A15C6240A128A117008F700760821
:100E8800013E0A128A15C6240A128A118312031314
:100E98006C08F7007608023E0A128A15C6240A1260
:100EA8008A11831203136A08F7007608033E0A12B0
:100EB8008A15C6240A128A11AC2F7503031D652FE3
:100EC800662FAC2F061A692F6A2FA22F76080A12EE
:100ED8008A15AF240A128A11FA00FB017A08F20077
:100EE8007B08F3007608013E0A128A15AF240A121D
:100EF8008A11FA00FB017A08F0007B08F1007608F5
:100F0800023E0A128A15AF240A128A11FA00FB015E
:100F18007A0883120313EC007B08ED007608033E81
:100F28000A128A15AF240A128A11FA00FB017A08FC
:100F380083120313EA007B08EB00AC2F8618A52F59
:100F4800A62FA72F292F0619AA2FAB2FAC2F312F89
:100F58000B107D088A007C0E8300FE0E7E0E0900B1
:100F680083120313BA002F083102B7003008031C9C
:100F7800300A3202B80033083707A60034080318CD
:100F8800340A3807A7003A08B9002F083902A00028
:100F980030090318013EA10033083502A2003408C5
:100FA800031C340A3602A3000A128A150D250A12F8
:100FB8008A11831203132108A9002008A8000A1225
:100FC8008A1565260A128A11831203132708B000AE
:100FD8002608AF000800F92FF12FF22FF32F013068
:100FE800F7020030031CF803F80277087804031DA1
:080FF800FE2FFF2FF02F08006F
:10195E00F700831603178C18B52CB62CB02C0C1868
:10196E00B92CBA2CB02C7708831203178D0083166E
:10197E0003178C130C14831203170C080800F800BD
:10198E00831603178C18CC2CCD2CC72C78088312F9
:10199E0003178D0077088C00831603178C130C1514
:1019AE0000308B1B0130F9008B1355308D00AA309F
:1019BE008D008C140C11790C031C8B1303188B17D0
:1019CE00080083160313071587149B3092003F30CF
:1019DE008312031397051708F0390C3897000F3050
:1019EE009D04303097049D161D160B3095000B305C
:1019FE009B008C100330920412158C1C072D082DA1
:101A0E00042D831603130711871008008312031386
:101A1E00A401A501201C142D152D1B2D2208A40791
:101A2E000318A50A2308A50701300310A20DA30D64
:101A3E00FF3E031D1C2D01300310A10CA00CFF3E18
:101A4E00031D232D20082104031D2E2D2F2D112DB6
:101A5E002508A1002408A000080083120313A80083
:101A6E00A401A5012008A200A3012208A6002308B4
:101A7E00A700281C432D442D4A2D2608A407031821
:101A8E00A50A2708A50701300310A60DA70DFF3ED6
:101A9E00031D4B2D0310A80C2808031D572D582D80
:101AAE00402D2508A1002408A00008008316031766
:101ABE0089018316031385011F3086008701880173
:101ACE008312031385018601870188018316031390
:101ADE0081137F3096000F088F3930388F000F1426
:101AEE00811281110108F8390338810064308312A4
:101AFE00031381008B160B118B170B170B148B1105
:101B0E00080083160313051483160317081483168F
:101B1E0003138514831603178814831603130515F0
:101B2E0083160317081583160313851583160317DB
:101B3E008815831203131F179F13831603131F1287
:101B4E009F12831203131F119F111F129F128316D0
:101B5E0003139F13831203131F14033083120313F3
:101B6E00A000A00BB82D0800831203136608A00076
:101B7E006708A1000030A11BFF30A200A3000130B6
:101B8E000A128A1546270A128A158312031323088E
:101B9E00B5002208B4002108B3002008B2003D3081
:101BAE00B1005030B000D030AF00D130AE000A12CC
:101BBE008A112A200A128A15831203133108CF00C4
:101BCE003008CE002F08CD002E08CC004030CB00C0
:101BDE00E030CA000030C9000030C8000A128A1175
:101BEE006F230A128A15831203134B08DF004A086B
:101BFE00DE004908DD004808DC000A128A15CE26F0
:101C0E000A128A15831203135D08F3005C08F200B2
:101C1E000800831203136608A0006708A1000030B5
:101C2E00A11BFF30A200A30001300A128A1546271D
:101C3E000A128A15831203132308B5002208B40072
:101C4E002108B3002008B2003D30B1005030B00082
:101C5E00D030AF00D130AE000A128A112A200A12FB
:101C6E008A15831203133108CF003008CE002F08D7
:101C7E00CD002E08CC004030CB00E030CA00003042
:101C8E00C9000030C8000A128A116F230A128A1581
:101C9E00831203134B08DF004A08DE004908DD00FB
:101CAE004808DC000A128A15CE260A128A158312FB
:101CBE0003135D08F1005C08F000080083120313A3
:101CCE00AC01A71F6B2E6C2E732EA609A709A60AB0
:101CDE000319A70AAC01AC0AA91F762E772E802E07
:101CEE00A809A909A80A0319A90A0130AA002A08F5
:101CFE00AC06AD01AE01260827040319872E882EE7
:101D0E00BF2EAB01AB0A962E01300310A60DA70D08
:101D1E00FF3E031D8C2E0130AA002A08AB07A71F19
:101D2E00992E9A2E8B2E01300310AD0DAE0DFF3E67
:101D3E00031D9B2E27082902031DA72E2608280205
:101D4E00031CAA2EAB2EB22E2608A8022708031CAF
:101D5E00A903A9022D1401300310A70CA60CFF3EF7
:101D6E00031DB32E0130AB02031DBE2EBF2E9A2EC5
:101D7E002C080319C32EC42EC92EAD09AE09AD0A07
:101D8E000319AE0A2E08A7002D08A600080003109E
:101D9E00831203135E0D5F0DE5006508031DD82E3B
:101DAE00D92EE22E0030DF000030DE000030DD00E4
:101DBE000030DC00452F5C08E0005D08E1005E08A5
:101DCE00E2005F08E3001F300310E30CE20CE10CAD
:101DDE00E00CFF3E031DEB2E6008E400DE17FF3023
:101DEE00DC05FF30DD05FF30DE050030DF05963007
:101DFE00E502E51F032F042F1E2F6508803A973E3C
:101E0E0003180A2F0B2F0C2FD92E01300310DF0CC5
:101E1E00DE0CDD0CDC0CFF3E031D0D2F0130E0004F
:101E2E006008E507031D1C2F1D2F0C2F352F2030AA
:101E3E006502031C232F242F302FD92E0130E000F2
:101E4E000310DC0DDD0DDE0DDF0DE00B272F013055
:101E5E00E5026508031D342F352F252F640803195D
:101E6E00392F3A2F452FDC09DD09DE09DF09DC0A9F
:101E7E000319DD0A0319DE0A0319DF0A08008312AB
:101E8E000313A800280803194D2F4E2F622FA31FEE
:101E9E00512F522F622F2009AA002109AB002209CF
:101EAE00AC002309AD00AA0A0319AB0A0319AC0A48
:101EBE000319AD0A6A2F2308AD002208AC002108D1
:101ECE00AB002008AA002308220421042004031DCD
:101EDE00712F722F7B2F0030A3000030A200003034
:101EEE00A1000030A000FF2F9630A9008B2F0130EB
:101EFE00A4002408A90701300310AD0CAC0CAB0CE8
:101F0E00AA0CFF3E031D832FFE302D05031D902FBF
:101F1E00912F7E2FAD2F0130A4002408A907013088
:101F2E00AA07003003180130AB0700300318013048
:101F3E00AC07003003180130AD0701300310AD0CB3
:101F4E00AC0CAB0CAA0CFF3E031DA52FFF302D05CC
:101F5E00031DB22FB32F922FBF2F0130A9020130D4
:101F6E00A4000310AA0DAB0DAC0DAD0DA40BB82F34
:101F7E00AC1BC22FC32FC92F023029020318C82F42
:101F8E00C92FB42F2918CC2FCD2FD52FFF30AA054E
:101F9E00FF30AB057F30AC05FF30AD050310A90C4B
:101FAE002908A400A501A601A70118300310A40D4D
:101FBE00A50DA60DA70DFF3E031DDD2F2408AA04B7
:101FCE002508AB042608AC042708AD04280803191D
:101FDE00F12FF22FF72FA31FF52FF62FF72FAD1797
:101FEE002D08A3002C08A2002B08A1002A08A0008F
:021FFE000800D9
:08400000FF3FFF3FFF3FFF3FC0
:04400E00D420FF3F7C
:00000001FF
